:020000000A28CC
:10000800FE00030EF0000A08F1004F290B288312A6
:10001800AF0183015728F4008710F501F601831218
:100028000710F41F1A28831207151C2883120711BA
:1000380007147408F3007307F4000130F507031878
:10004800F60A0030F6077608803AFF0080307F0213
:10005800031D302808307502031C1328F501F6012A
:1000680083120710F21F3B28831207153D288312BD
:10007800071107147208F3007307F2000130F5073F
:100088000318F60A0030F6077608803AFF00803039
:100098007F02031D512808307502031C342883127F
:1000A8000710871408008316071187100710871197
:1000B800910116148B178B158312071087140711DB
:1000C8003B210530AC000030AD00AF014E30A00040
:1000D8006130A100D32083122F0803196F28050C63
:1000E8000139A8000508013928070139AE002E0892
:1000F800A800A9010310A80DA90D2808FF3EAA0011
:1001080029080318013EFF3EAB002A08AC07031874
:10011800AD0A2B08AD072D08A1002C08A000D3209C
:100128008312AF016F28F601F701720873040319EF
:10013800CE28F801F80AF31BAD2801300310F20DA0
:10014800F30DFF3E031DA2280130FF007F08F807CA
:100158009F2801300310F60DF70DFF3E031DAE2852
:1001680073087502031DBA2872087402031CC32899
:100178007208F4027308031CF503F50276140130C3
:100188000310F30CF20CFF3E031DC4280130F802E3
:10019800031DAD287708F3007608F2000800013047
:1001A800A2000030A30083122308F8002208F700F9
:1001B8000A30F2000030F3002108F5002008F400AE
:1001C80009217308FA007208F9005C210A30F2006C
:1001D8000030F3002108F5002008F4009720730888
:1001E800A1007208A0000130A2070318A30A00307A
:1001F800A3072308803AFF0080307F02031D0629E9
:100208000930220203180800D7287208730403195A
:100218003629F601F60AF31B1D2901300310F20DE9
:10022800F30DFF3E031D12290130FF007F08F6077A
:100238000F2973087502031D232972087402031C11
:100248002B297208F4027308031CF503F502013028
:100258000310F30CF20CFF3E031D2C290130F602AB
:10026800031D1D297508F3007408F2000800F20147
:100278000F300F20FF30F20009300F200830F20055
:100288000A300F200730F2000B300F20F201F20A7B
:100298000C300F2008000B1C55298312AF01AF0A40
:1002A8000B1071088A00700E8300FE0E7E0E090086
:0A02B8007908F20077080F20080013
:02400E00D43CA0
:00000001FF
